:020000040000FA
:100000000C9462000C948A000C948A000C948A0070
:100010000C948A000C948A000C948A000C948A0038
:100020000C948A000C948A000C948A000C948A0028
:100030000C948A000C948A000C948A000C948A0018
:100040000C943F0A0C948A000C940D0A0C94E70956
:100050000C948A000C948A000C948A000C948A00F8
:100060000C948A000C948A000000000023002600F3
:10007000290000000000240027002A0000000000E2
:10008000250028002B0004040404040404040202D4
:100090000202020203030303030301020408102007
:1000A0004080010204081020010204081020000012
:1000B0000008000201000003040700000000000027
:1000C0000000890A11241FBECFEFD8E0DEBFCDBFEC
:1000D00013E0A0E0B1E0EAE0FBE102C005900D9280
:1000E000A031B107D9F724E0A0E1B3E001C01D922F
:1000F000A235B207E1F710E0C2E6D0E004C02197D4
:10010000FE010E947D0DC136D107C9F70E94250B63
:100110000C94830D0C940000E9E4F3E0A089B1890C
:1001200082E08C93A485B5851C92A685B7858FEC5B
:100130008C93108EA489B58986E08C93A289B389AB
:100140008C9180618C93A289B3898C9188608C9307
:10015000A289B3898C9180688C930288F389E02D01
:1001600080818F7D80830895AF92BF92CF92DF927E
:10017000EF92FF920F931F93CF93DF936C017B015C
:100180008B01040F151FEB015E01AE18BF08C017ED
:10019000D10759F06991D601ED91FC910190F08160
:1001A000E02DC6010995892B79F7C501DF91CF9123
:1001B0001F910F91FF90EF90DF90CF90BF90AF9085
:1001C0000895FC01538D448D252F30E0842F90E05D
:1001D000821B930B541710F0CF9608950197089542
:1001E000FC01918D828D981761F0A28DAE0FBF2F0B
:1001F000B11D5D968C91928D9F5F9F73928F90E061
:1002000008958FEF9FEF0895FC01918D828D9817CF
:1002100031F0828DE80FF11D858D90E008958FEF0C
:100220009FEF0895FC01918D228D892F90E0805CD5
:100230009F4F821B91098F739927089589E493E05A
:100240000E94120121E0892B09F420E0822F0895F9
:1002500080E090E0892B29F00E941E0181110C940E
:1002600000000895FC01A48DA80FB92FB11DA35A59
:10027000BF4F2C91848D90E001968F739927848FC6
:10028000A689B7892C93A089B1898C9183708064E9
:100290008C93938D848D981306C00288F389E02D8A
:1002A00080818F7D80830895EF92FF920F931F933B
:1002B000CF93DF93EC0181E0888F9B8D8C8D981319
:1002C0001AC0E889F989808185FF15C09FB7F89425
:1002D000EE89FF896083E889F98980818370806471
:1002E00080839FBF81E090E0DF91CF911F910F91BC
:1002F000FF90EF900895F62E0B8D10E00F5F1F4FCB
:100300000F731127E02E8C8D8E110CC00FB607FCD9
:10031000FACFE889F989808185FFF5CFCE010E9467
:100320003201F1CFEB8DEC0FFD2FF11DE35AFF4FA2
:10033000F0829FB7F8940B8FEA89FB8980818062F5
:10034000CFCFCF93DF93EC01888D8823B9F0AA89B2
:10035000BB89E889F9898C9185FD03C0808186FD80
:100360000DC00FB607FCF7CF8C9185FFF2CF8081CF
:1003700085FFEDCFCE010E943201E9CFDF91CF9111
:100380000895833081F028F4813099F08230A9F00B
:1003900008958730A9F08830C9F08430B1F4809195
:1003A00080008F7D03C0809180008F7780938000D4
:1003B000089584B58F7784BD089584B58F7DFBCF74
:1003C0008091B0008F778093B00008958091B00045
:1003D0008F7DF9CF1F93CF93DF93282F30E0F90162
:1003E000E255FF4F8491F901E656FF4FD491F90190
:1003F000EA57FF4FC491CC23A9F0162F81110E9418
:10040000C101EC2FF0E0EE0FFF1FE458FF4FA59164
:10041000B4918FB7F894EC91111108C0D095DE23F8
:10042000DC938FBFDF91CF911F910895DE2BF8CF22
:10043000CF93DF9390E0FC01E656FF4F24918A575B
:100440009F4FFC0184918823C9F090E0880F991F89
:10045000FC01EE58FF4FA591B491FC01E458FF4F09
:10046000C591D49161110DC09FB7F8948C912095DE
:1004700082238C938881282328839FBFDF91CF918B
:100480000895623051F49FB7F8943C91822F809583
:1004900083238C93E8812E2BEFCF8FB7F894EC91C8
:1004A0002E2B2C938FBFEACF0F931F93CF93DF9305
:1004B000EC01888581110EC0898591E098879A8525
:1004C00062E0911101C060E00E9418028FE090E0AC
:1004D0000197F1F7298530E0F901E255FF4F84914A
:1004E000F901E656FF4F0491F901EA57FF4F1491C5
:1004F0001123C9F081110E94C101E12FF0E0EE0F3C
:10050000FF1FE859FF4FA591B491EC910E2331E004
:1005100009F430E0832F2B8582278170DF91CF9102
:100520001F910F91089580E0F6CFCF93DF93EC01F8
:100530000E9454029FB7F89440914503509146039E
:1005400060914703709148039FBF9A81913081F079
:1005500030F09230D9F09330F9F080E006C081118C
:10056000FCCF5C834B8391E09A83DF91CF91089518
:10057000882311F01A82F1CF2B813C81421B530B4F
:100580004F30510590F382E08A83E7CF882369F3E7
:100590005C834B8383E0F8CF8823A9F32B813C81D4
:1005A000421B530B4F305105C0F21A82DECF089523
:1005B00090E080E00895CF93DF93EC0160E08E81BE
:1005C0000E94EA0161E08E810E94EA0160E08E8172
:1005D0000E94EA018BE891E00197F1F7DF91CF915A
:1005E0000895CF92DF92EF92FF920F931F93CF93D4
:1005F000DF936C017C0187E0E80EF11CD0E0C0E0E5
:10060000062F10E0B8010C2E02C0759567950A946C
:10061000E2F76170F70181917F010E94EA01219662
:10062000C430D10579F7C601DF91CF911F910F91A9
:10063000FF90EF90DF90CF900C94DB02CF92DF928F
:10064000EF92FF920F931F93CF93DF93EC01F62E5F
:10065000642F8C810E94EA018D818F3F19F060E048
:100660000E94EA010F2D10E08F8584FF25C06E01E6
:1006700087E0C80ED11CF12CE12CB8010E2C02C071
:10068000759567950A94E2F76170F60181916F01A3
:100690000E94EA01FFEFEF1AFF0A88E0E816F10472
:1006A00061F7CE01DF91CF911F910F91FF90EF90F5
:1006B000DF90CF900C94DB02B80184E075956795CC
:1006C0008A95E1F7CE010E94F1026F2DCE01DF91F4
:1006D000CF911F910F91FF90EF90DF90CF900C94EE
:1006E000F10240E0682F8AE394E00C941E0381E05D
:1006F0000E9471038BE39FE10197F1F70895CF9377
:10070000DF93613029F090914904986090934904F7
:1007100060934D0410924E0490E490934F048093A4
:100720005004805C8093510461E080913E040E94FB
:10073000180280913F048F3F19F061E00E94180277
:1007400061E0809140040E941802CAE3D4E09E0157
:100750002A5334408091490484FD0BC084E090E02A
:1007600021962817390744F461E08E810E9418020F
:10077000EECF88E090E0F4CF8BE39DE00197F1F7B6
:1007800060E080913E040E94EA0160E080914004B4
:100790000E94EA0180913F048F3F19F060E00E94BF
:1007A000EA018091490484FD34C063E08AE394E067
:1007B0000E94F102CBE4D6E4CE010197F1F763E0A9
:1007C0008AE394E00E94F1022197F1F763E08AE363
:1007D00094E00E94F10283E592E00197F1F762E074
:1007E0008AE394E00E94F1028091490480620E94B1
:1007F000710384E080934A048CE00E9471030E949C
:10080000770382E080934B0486E0DF91CF910C94D4
:10081000710380620E9471038BE496E40197F1F703
:100820008091490480620E94710383E592E0019700
:10083000F1F78091490480620E947103D5CF9091B5
:100840004D04691710F06FEF690FE62FF0E0E65CDA
:10085000FB4F9489890F80680C94710341E00E94DA
:100860001E0381E090E00895FB0101900020E9F76C
:100870003197AF01461B570BDC01ED91FC910280D3
:10088000F381E02D099468E371E089E493E00C942E
:1008900034044F925F926F927F928F929F92AF92A9
:1008A000BF92CF92DF92EF92FF920F931F93CF935D
:1008B000DF93CDB7DEB7A1970FB6F894DEBF0FBEBA
:1008C000CDBF8C016B01770FEE08FF08F7FE49C022
:1008D000DC01ED91FC910190F081E02D6DE2099534
:1008E0005C0122273327A9012C193D094E095F0914
:1008F00019A2FE01B1967F019AE0492E512C612C7C
:10090000712CCA01B901A30192010E945B0D605DC7
:10091000D7016E937D01211531054105510589F7F8
:1009200090E080E0109721F0BD01C8010E943404DE
:100930008A0D9B1DA1960FB6F894DEBF0FBECDBFEA
:10094000DF91CF911F910F91FF90EF90DF90CF90AB
:10095000BF90AF909F908F907F906F905F904F90DF
:100960000895A701960119A2FE01B1967F018AE0C0
:10097000882E912CA12CB12CCA01B901A50194019A
:100980000E945B0D605DD7016E937D0121153105DD
:100990004105510589F790E080E0109759F2BD01BB
:1009A000C8010E943404C6CFCF93DF93BC0189E411
:1009B00093E00E944904EC010E9443048C0F9D1FA8
:1009C000DF91CF910895CF93DF93BC0189E493E049
:1009D0000E943404EC010E9443048C0F9D1FDF91A0
:1009E000CF9108950C9434041F93CF93DF9380919B
:1009F000000190910101019709F04EC08091100112
:100A000090911101909336038093350380910C01EE
:100A100090910D01909334038093330380910801EA
:100A200090910901909332038093310380910401E6
:100A3000909105019093300380932F0380910201E0
:100A40009091030190932E0380932D0380911201C6
:100A500090911301909322038093210380910E01C2
:100A600090910F019093200380931F0380910A01BE
:100A700090910B0190931E0380931D0380910601BA
:100A80009091070190931C0380931B0382E090E0F8
:100A9000909301018093000180914303909144035E
:100AA000009769F564E084E10E947F0360E087E0DD
:100AB0000E941F0460913F03709140038AE394E019
:100AC0000E9449046BE371E08AE394E00E94F2041F
:100AD00062E080E00E941F046FE371E08AE394E02B
:100AE0000E94F20463E080E00E941F0461E571E06F
:100AF0008AE394E0DF91CF911F910C94F20481304E
:100B0000910509F0BDC0809100019091010102970B
:100B100009F067C00E948C0067E671E089E493E009
:100B20000E94F20480913703909138030E94D4040C
:100B30000E9443048AE992E00E94E30465EA72E0BD
:100B400089E493E00E94F204209112013091130194
:100B50008091410390914203820F931F0E94D4041D
:100B600063EB72E089E493E00E94F20420910E01AD
:100B700030910F0180913D0390913E03820F931FAE
:100B80000E94D40466EC72E089E493E00E94F204CF
:100B900020910A0130910B0180913B0390913C031D
:100BA000820F931F0E94D4046BED72E089E493E0FE
:100BB0000E94F204209106013091070180913903CF
:100BC00090913A03820F931F0E94D4040E94430421
:100BD0008091000190910101019690930101809311
:100BE000000164E084E10E947F0360E080E00E94F5
:100BF0001F0464E771E08AE394E00E94F2046091CC
:100C00004103709142038AE394E00E94490461E049
:100C100080E00E941F0461E871E08AE394E00E9492
:100C2000F20460913D0370913E038AE394E00E94D8
:100C3000490462E080E00E941F046BE871E08AE3EF
:100C400094E00E94F20460913B0370913C038AE3BC
:100C500094E00E94490463E080E00E941F0467E979
:100C600071E08AE394E00E94F2046091390370918C
:100C70003A038AE394E0DF91CF911F910C944904E9
:100C80008F3F980789F50E94770360E080E00E941B
:100C90001F0463EA71E08AE394E00E94F20461E0D9
:100CA00080E00E941F0460EB71E08AE394E00E9400
:100CB000F2040E948C0067E671E089E493E00E94F0
:100CC000F20480913703909138030E94D4040E946B
:100CD000430483EA91E00E94E30480EB91E0DF911A
:100CE000CF911F910C94E3048230910509F04CC31D
:100CF0000E94770360E080E00E941F0463EC71E0D3
:100D00008AE394E00E94F20460913F0370914003F3
:100D10008AE394E00E944904209141033091420308
:100D20004FE0429FC001439F900D112440913D032D
:100D300050913E03DAE0D49F9001D59F300D1124ED
:100D4000820F931F40913B0350913C0315E0149F89
:100D50009001159F300D1124820F931F409139038C
:100D600050913A03C2E3C49F9001C59F300D1124F6
:100D7000820F931F909313038093120361E080E02E
:100D80000E941F0462ED71E08AE394E00E94F20485
:100D900060911203709113038AE394E00E94490466
:100DA00063E080E00E941F0420913F0330914003E4
:100DB0008091120390911303281739070CF4CDC2C8
:100DC00061EE71E08AE394E00E94F20460913F03D7
:100DD000709140038091120390911303681B790B6B
:100DE0008AE394E00E94490420913F03309140033C
:100DF0008091120390911303281B390B30931A032F
:100E0000209319034091100150911101149FC001CA
:100E1000159F900D112460910C0170910D01D69FCA
:100E2000A001D79F500D1124840F951F60910801D8
:100E300070910901E4E1E69FA001E79F500D1124A4
:100E4000840F951F6091040170910501C69FA00158
:100E5000C79F500D1124840F951F6091020170915E
:100E60000301E4E6E69FA001E79F500D1124840FE3
:100E7000951F90931103809310038217930774F4C6
:100E80000E948C008CEE91E00E94E30483E090E0ED
:100E900090934403809343030E94F40480911903C8
:100EA00090911A0340912303509124032091020151
:100EB00030910301742F652F843691050CF002C127
:100EC00030930301209302015093240340932303A2
:100ED0004091250350912603209104013091050192
:100EE000742F652F823391050CF0FFC030930501FC
:100EF0002093040150932603409325034091270338
:100F0000509128032091080130910901742F652F19
:100F1000843191050CF0FBC0309309012093080146
:100F200050932803409327034091290350912A03AB
:100F300020910C0130910D01742F652F8A3091059D
:100F40000CF0F7C030930D0120930C0150932A034D
:100F50004093290320912B0330912C0340911001E1
:100F600050911101722F632FF82FE92F85309105D1
:100F70000CF4F4C005972F5F3F4F141615060CF4C0
:100F8000EAC05093110140931001F0931903E093CC
:100F90001A0370932B0360932C030E948C0087E04C
:100FA00092E00E94E3048AE192E00E94E3040E943E
:100FB000430483E392E00E94E3046FE472E089E477
:100FC00093E00E94F20480912B0390912C030E94E5
:100FD000D40468E572E089E493E00E94F204809111
:100FE000290390912A030E94D40462E672E089E406
:100FF00093E00E94F20480912703909128030E94BD
:10100000D4046CE672E089E493E00E94F2048091DB
:101010002503909126030E94D40466E772E089E4D8
:1010200093E00E94F20480912303909124030E9494
:10103000D40481E892E00E94E3046FE472E089E462
:1010400093E00E94F20480911001909111010E949E
:10105000D40468E572E089E493E00E94F204809190
:101060000C0190910D010E94D40462E672E089E4C3
:1010700093E00E94F20480910801909109010E947E
:10108000D4046CE672E089E493E00E94F20480915B
:101090000401909105010E94D40466E772E089E49E
:1010A00093E00E94F20480910201909103010E945A
:1010B000D40483E090E090934403809343030E9420
:1010C000F4045CC04F5F5F4F121613064CF0309370
:1010D0000301209302017093230360932403F8CE4D
:1010E0008456910921503109E5CE4F5F5F4F1216AA
:1010F00013064CF0309305012093040170932503EF
:1011000060932603FBCEC29721503109E9CE4F5F91
:101110005F4F121613064CF030930901209308011B
:101120007093270360932803FFCE44972150310921
:10113000EDCE4F5F5F4F121613064CF030930D014A
:1011400020930C017093290360932A0303CF0A971D
:1011500021503109F1CE4150510904CF5093110172
:101160004093100190931A038093190330932C033A
:1011700020932B03181619060CF40FCF809143030C
:1011800090914403029709F0B8C00E948C0084E952
:1011900092E00E94E30464EA72E089E493E00E9432
:1011A000F20480911201909113010E94D40462EB29
:1011B00072E089E493E00E94F20480910E01909124
:1011C0000F010E94D40465EC72E089E493E00E9470
:1011D000F20480910A0190910B010E94D4046AEDFF
:1011E00072E089E493E00E94F204809106019091FC
:1011F00007010E94D4040E94430483E392E00E940A
:10120000E3046FE472E089E493E00E94F2048091C9
:101210001001909111010E94D40468E572E089E404
:1012200093E00E94F20480910C0190910D010E94C4
:10123000D40462E672E089E493E00E94F2048091B3
:101240000801909109010E94D4046CE672E089E4DF
:1012500093E00E94F20480910401909105010E94A4
:10126000D40466E772E089E493E00E94F20480917E
:101270000201909103010E94D40481E892E00E944F
:10128000E3046FE472E089E493E00E94F204809149
:101290002B0390912C030E94D40468E572E089E44A
:1012A00093E00E94F2048091290390912A030E9406
:1012B000D40462E672E089E493E00E94F204809133
:1012C0002703909128030E94D4046CE672E089E41D
:1012D00093E00E94F20480912503909126030E94DE
:1012E000D40466E772E089E493E00E94F2048091FE
:1012F0002303909124030E94D4048091430390918E
:1013000044030196909344038093430360E08EE08E
:101310000E94180260E08FE00E94180260E080E105
:101320000E94180260E081E10E94180260E082E100
:101330000E94180260E083E10E94180260E08DE0E4
:101340000E94180261E083E00E94180261E082E0DE
:10135000DF91CF911F910C9418020E9477036FEEDA
:1013600072E08AE394E00E94F204609112037091AB
:10137000130380913F0390914003681B790B8AE32C
:1013800094E00E944904C2CF0397E9F40E947703D6
:1013900060E083E00E941F0461E073E08AE394E070
:1013A0000E94F20461E084E00E941F046EE072E09B
:1013B0008AE394E00E94F20463E080E00E941F044C
:1013C00060EB71E095CBDF91CF911F9108951F9253
:1013D0000F920FB60F9211242F933F934F935F9369
:1013E0006F937F938F939F93AF93BF93EF93FF93ED
:1013F00089E493E00E943201FF91EF91BF91AF9198
:101400009F918F917F916F915F914F913F912F911C
:101410000F900FBE0F901F9018951F920F920FB64E
:101420000F9211242F938F939F93EF93FF93E0914B
:101430005903F0915A038081E0915F03F0916003BA
:1014400082FD1BC09081809162038F5F8F7320911A
:101450006303821741F0E0916203F0E0E75BFC4F29
:10146000958F80936203FF91EF919F918F912F91C0
:101470000F900FBE0F901F9018958081F4CF1F9290
:101480000F920FB60F9211242F933F938F939F9338
:10149000AF93BF938091450390914603A09147037A
:1014A000B09148033091180323E0230F2D3758F5EE
:1014B0000196A11DB11D20931803809345039093BD
:1014C0004603A0934703B09348038091140390917F
:1014D0001503A0911603B09117030196A11DB11D2C
:1014E0008093140390931503A0931603B0931703EE
:1014F000BF91AF919F918F913F912F910F900FBE10
:101500000F901F90189526E8230F0296A11DB11D7C
:10151000D2CFE9E4F3E01382128288EE93E0A0E0F8
:10152000B0E084839583A683B78388E191E09183BB
:10153000808385EC90E09587848784EC90E09787A2
:10154000868780EC90E0918B808B81EC90E0938B90
:10155000828B82EC90E0958B848B86EC90E0978B6D
:10156000868B118E128E138E148EEAE3F4E01382B2
:10157000128280E391E09183808389E084838FEFFE
:10158000858388E0868387E0878386E0808785E09F
:10159000818784E0828713861486158616861786CF
:1015A00061E080E10E947F03EEE2F4E012821582A6
:1015B0002AE231E03183208310868EE0818781E04A
:1015C00082878387E2E2F4E01282158231832083EE
:1015D00010869FE0918782878387E6E1F4E012829C
:1015E000158231832083108690E1918782878387DB
:1015F000EAE0F4E01282158231832083108691E1C3
:10160000918782878387EEEFF3E012821582318320
:101610002083108692E1918782878387E2EFF3E04F
:101620001282158231832083108693E1918782870D
:101630008387E6EEF3E012821582318320831086E1
:101640009DE09187828783870895789484B582602E
:1016500084BD84B5816084BD85B5826085BD85B556
:10166000816085BD80916E00816080936E001092D4
:10167000810080918100826080938100809181004F
:1016800081608093810080918000816080938000E0
:101690008091B10084608093B1008091B00081603E
:1016A0008093B00080917A00846080937A0080916A
:1016B0007A00826080937A0080917A0081608093C2
:1016C0007A0080917A00806880937A001092C1003D
:1016D0000E94F404C0E0D0E00FEF1FEF8EE294E030
:1016E0000E9495028823F9F080914303909144036E
:1016F0008130910509F07AC1809112019091130116
:101700001816190674F4019790931301809312012F
:1017100080914103909142030196909342038093FC
:1017200041030E94F40482E294E00E94950288231F
:10173000F9F080914303909144038130910509F0C1
:101740006BC180910E0190910F011816190674F467
:10175000019790930F0180930E0180913D0390912A
:101760003E03019690933E0380933D030E94F40450
:1017700086E194E00E9495028823F9F0809143036A
:10178000909144038130910509F05CC180910A0178
:1017900090910B011816190674F4019790930B01A0
:1017A00080930A0180913B0390913C0301969093B2
:1017B0003C0380933B030E94F4048AE094E00E947F
:1017C00095028823F9F0809143039091440381307E
:1017D000910509F04DC180910601909107011816FD
:1017E000190674F401979093070180930601809184
:1017F000390390913A03019690933A038093390309
:101800000E94F4048EEF93E00E9495028823D9F0A1
:101810008091430390914403892B99F480913F0375
:10182000909140038C599F4F9093400380933F03C6
:10183000809102019091030101969093030180939E
:1018400002010E94F40482EF93E00E949502882333
:1018500091F18091430390914403892B91F42FB728
:10186000F8948091450390914603A0914703B0916D
:1018700048032FBF83709927019690933803809374
:10188000370380914303909144030196909344035E
:10189000809343038091370390913803029709F4B2
:1018A000FDC060E083E00E94EA0161E082E00E9406
:1018B000EA010E94F40486EE93E00E9495028823D8
:1018C00009F489C00E948C006CE089E493E00E94D6
:1018D00054018091350390913603909311018093C8
:1018E0001001809133039091340390930D01809304
:1018F0000C01809131039091320390930901809300
:10190000080180912F0390913003909305018093FB
:10191000040180912D0390912E03909303018093F5
:10192000020110922C0310922B0310922A031092A2
:101930002903109228031092270310922603109275
:101940002503109224031092230380912103909188
:101950002203909313018093120180911F039091B1
:10196000200390930F0180930E0180911D039091AD
:101970001E0390930B0180930A0180911B039091A9
:101980001C0390930701809306011092420310926A
:10199000410310923E0310923D0310923C031092BB
:1019A0003B0310923A031092390310921A031092DB
:1019B00019031092400310923F03109244031092B7
:1019C000430360E083E00E94EA0160E082E00E945D
:1019D000EA010E94F404209709F480CE0E941E01BF
:1019E000882309F47BCE0E94000078CE892B09F071
:1019F00098CE80913F0390914003059690934003C9
:101A000080933F0380911001909111010196909372
:101A100011018093100185CE892B09F0A7CE80910A
:101A20003F03909140030A969093400380933F03B5
:101A300080910C0190910D01019690930D0180937E
:101A40000C0194CE892B09F0B6CE80913F03909182
:101A5000400344969093400380933F038091080194
:101A60009091090101969093090180930801A3CEFA
:101A7000892B09F0C5CE80913F0390914003C29617
:101A80009093400380933F0380910401909105015E
:101A900001969093050180930401B2CE61E083E04A
:101AA0000E94EA0160E082E00E94EA011093440390
:101AB00000934303FECEA1E21A2EAA1BBB1BFD011D
:101AC0000DC0AA1FBB1FEE1FFF1FA217B307E4071D
:101AD000F50720F0A21BB30BE40BF50B661F771F75
:101AE000881F991F1A9469F7609570958095909555
:101AF0009B01AC01BD01CF010895EE0FFF1F0590C2
:101B0000F491E02D0994F894FFCF010005001E0028
:101B100014000A0064001400320014001E000000CB
:101B200000005401B400E100A1011201F000040121
:101B3000000000005402000000002E04B400D8028F
:101B4000D7020D0A0020544C00697074616C206546
:101B5000746D656B206963696E200052455345546E
:101B6000206275746F6E756E6120626173696E2E8E
:101B70000052616E646F6D20536179693A00312EB5
:101B80004B6F70756B6C656D653A00322E59696BE1
:101B9000616D613A00332E4B7572756C616D613AFF
:101BA00000342E43696C616C616D613A0050617262
:101BB000612054616B696C6469005245534554203F
:101BC000747573756E6120626173696E0059756B0F
:101BD0006C656E656E20506172613A0048697A6D7D
:101BE000657420426564656C693A005061726120D9
:101BF000557374753A004B61736164612079657443
:101C000065726C69207061726120796F6B74757296
:101C1000004B6173616461205061726120596F6B88
:101C200074757200506172616E697A2049616465F1
:101C3000204564696C69796F722E2E2E004B61739A
:101C40006164616B6920546F706C616D2042616EDC
:101C50006B6E6F746C61723A00202020356C696B7A
:101C60003A0020202031306C756B3A002020203261
:101C7000306C696B3A0020202035306C696B3A007B
:101C80002020203130306C756B3A00506172612039
:101C900055737475204D696B746172693A004B61BC
:101CA0006C616E2048697A6D65746C6572002020E5
:101CB000204B6F70756B6C656D653A002020205964
:101CC000696B616D61204D696B746172693A0020C6
:101CD00020204B7572756C616D61204D696B74616C
:101CE00072693A0020202043696C616C616D61204B
:101CF0004D696B746172693A00456B73696B506131
:101D000072614D696B746172693A004B6173616411
:0A1D1000612059657465726C69006A
:107E0000112484B714BE81FFF0D085E080938100F7
:107E100082E08093C00088E18093C10086E0809377
:107E2000C20080E18093C4008EE0C9D0259A86E02C
:107E300020E33CEF91E0309385002093840096BBD3
:107E4000B09BFECF1D9AA8958150A9F7CC24DD24C4
:107E500088248394B5E0AB2EA1E19A2EF3E0BF2EE7
:107E6000A2D0813461F49FD0082FAFD0023811F036
:107E7000013811F484E001C083E08DD089C08234E0
:107E800011F484E103C0853419F485E0A6D080C0E4
:107E9000853579F488D0E82EFF2485D0082F10E0AE
:107EA000102F00270E291F29000F111F8ED06801E7
:107EB0006FC0863521F484E090D080E0DECF843638
:107EC00009F040C070D06FD0082F6DD080E0C81688
:107ED00080E7D80618F4F601B7BEE895C0E0D1E017
:107EE00062D089930C17E1F7F0E0CF16F0E7DF06D8
:107EF00018F0F601B7BEE89568D007B600FCFDCFD4
:107F0000A601A0E0B1E02C9130E011968C91119780
:107F100090E0982F8827822B932B1296FA010C0160
:107F200087BEE89511244E5F5F4FF1E0A038BF0790
:107F300051F7F601A7BEE89507B600FCFDCF97BE46
:107F4000E89526C08437B1F42ED02DD0F82E2BD052
:107F50003CD0F601EF2C8F010F5F1F4F84911BD097
:107F6000EA94F801C1F70894C11CD11CFA94CF0C13
:107F7000D11C0EC0853739F428D08EE10CD085E9AC
:107F80000AD08FE07ACF813511F488E018D01DD067
:107F900080E101D065CF982F8091C00085FFFCCF94
:107FA0009093C60008958091C00087FFFCCF809118
:107FB000C00084FD01C0A8958091C6000895E0E648
:107FC000F0E098E1908380830895EDDF803219F02E
:107FD00088E0F5DFFFCF84E1DECF1F93182FE3DFCA
:107FE0001150E9F7F2DF1F91089580E0E8DFEE27F6
:047FF000FF270994CA
:027FFE00040479
:00000001FF
